10011020695583100010100000BILLIE J  ADAMS                        0900288012959770000000000000000000000001000000000000000000170000000000000000000000000903260515000000009700000000
10021020695583100010100000BRANDON S  HAIRSTON                    0900288012959770000000000000000000000002000000000000000000175000000000000000000000000903260515000000009900000000
10031020695583100010100000BRANT N  CASEY                         0900288012959770000000000000000000000003000000000000000000000500000000000000000000000903260515000000010100000000
10041020695583100010100000ERIC J. FURMAN                         0900288012959770000000000000000000000004000000000000000000003550000000000000000000000903260515000000010300000000
10051020695583100010100000PATRICK M  GINGERICH                   0900288012959770000000000000000000000005000000000000000000010500000000000000000000000903260515000000010500000000
10061020695583100010100000GLORIA J  MARTELLO                     0900288012959770000000000000000000000006000000000000000000100500000000000000000000000903260515000000010600000000
10071020695583100010100000DARRELL S  EVANS                       0900288012959770000000000000000000000007000000000000000001000500000000000000000000000903260515000000010800000000
10081020695583100010100000MICHAEL S  HUNTER                      0900288012959770000000000000000000000008000000000000000000001300000000000000000000000903260515000000011000000000
10091020695583100010100000JAMES E  GRAY                          0900288012959770000000000000000000000009000000000000000000000001000000000000000000000903260515000000011200000000
10101020695583100010100000SUSAN M  WALKER                        0900288012959770000000000000000000000010000000000000000000000000000000000000000000000903260515000000011400000000
